{
  "contractName": "Property",
  "abi": [
    {
      "inputs": [],
      "name": "count",
      "outputs": [
        {
          "internalType": "uint256",
          "name": "",
          "type": "uint256"
        }
      ],
      "stateMutability": "view",
      "type": "function",
      "constant": true
    },
    {
      "inputs": [
        {
          "internalType": "uint256",
          "name": "",
          "type": "uint256"
        }
      ],
      "name": "properties",
      "outputs": [
        {
          "internalType": "uint256",
          "name": "registrationNumber",
          "type": "uint256"
        },
        {
          "internalType": "string",
          "name": "ownerName",
          "type": "string"
        },
        {
          "internalType": "string",
          "name": "registrationDate",
          "type": "string"
        },
        {
          "internalType": "string",
          "name": "propertyType",
          "type": "string"
        },
        {
          "internalType": "string",
          "name": "province",
          "type": "string"
        },
        {
          "internalType": "uint256",
          "name": "marla",
          "type": "uint256"
        },
        {
          "internalType": "uint256",
          "name": "noOfRooms",
          "type": "uint256"
        },
        {
          "internalType": "uint256",
          "name": "noOfFloors",
          "type": "uint256"
        },
        {
          "internalType": "string",
          "name": "phaseNo",
          "type": "string"
        },
        {
          "internalType": "uint256",
          "name": "sold_count",
          "type": "uint256"
        },
        {
          "internalType": "string",
          "name": "location",
          "type": "string"
        },
        {
          "internalType": "uint256",
          "name": "tax",
          "type": "uint256"
        }
      ],
      "stateMutability": "view",
      "type": "function",
      "constant": true
    },
    {
      "inputs": [],
      "name": "setPropertyData",
      "outputs": [],
      "stateMutability": "nonpayable",
      "type": "function"
    },
    {
      "inputs": [
        {
          "internalType": "uint256",
          "name": "registrationNumber",
          "type": "uint256"
        }
      ],
      "name": "getPropertyData",
      "outputs": [
        {
          "internalType": "uint256",
          "name": "",
          "type": "uint256"
        },
        {
          "internalType": "string",
          "name": "",
          "type": "string"
        },
        {
          "internalType": "string",
          "name": "",
          "type": "string"
        },
        {
          "internalType": "string",
          "name": "",
          "type": "string"
        },
        {
          "internalType": "string",
          "name": "",
          "type": "string"
        },
        {
          "internalType": "uint256",
          "name": "",
          "type": "uint256"
        },
        {
          "internalType": "uint256",
          "name": "",
          "type": "uint256"
        },
        {
          "internalType": "uint256",
          "name": "",
          "type": "uint256"
        },
        {
          "internalType": "string",
          "name": "",
          "type": "string"
        },
        {
          "internalType": "uint256",
          "name": "",
          "type": "uint256"
        },
        {
          "internalType": "string",
          "name": "",
          "type": "string"
        },
        {
          "internalType": "uint256",
          "name": "",
          "type": "uint256"
        }
      ],
      "stateMutability": "view",
      "type": "function",
      "constant": true
    }
  ],
  "bytecode": "0x60806040526000805534801561001457600080fd5b50610f45806100246000396000f3fe608060405234801561001057600080fd5b506004361061004c5760003560e01c806306661abd14610051578063740ac22e1461006f578063bb632ab814610079578063f7b10808146100b4575b600080fd5b6100596100ef565b6040516100669190610c40565b60405180910390f35b6100776100f5565b005b610093600480360381019061008e9190610c8c565b6103ad565b6040516100ab9c9b9a99989796959493929190610d52565b60405180910390f35b6100ce60048036038101906100c99190610c8c565b6107f4565b6040516100e69c9b9a99989796959493929190610d52565b60405180910390f35b60005481565b6000604051806101800160405280605981526020016040518060400160405280600581526020017f417a65656d00000000000000000000000000000000000000000000000000000081525081526020016040518060400160405280600981526020017f31322f322f32303232000000000000000000000000000000000000000000000081525081526020016040518060400160405280600c81526020017f524553534944454e5449414c000000000000000000000000000000000000000081525081526020016040518060400160405280600681526020017f50554e4a414200000000000000000000000000000000000000000000000000008152508152602001600a815260200160058152602001600281526020016040518060400160405280600381526020017f462d3900000000000000000000000000000000000000000000000000000000008152508152602001600381526020016040518060400160405280601481526020017f33312e3530323534352c2037342e323839323432000000000000000000000000815250815260200161afc8815250905080600160008060008154809291906102a790610e65565b9190505581526020019081526020016000206000820151816000015560208201518160010190805190602001906102df929190610b84565b5060408201518160020190805190602001906102fc929190610b84565b506060820151816003019080519060200190610319929190610b84565b506080820151816004019080519060200190610336929190610b84565b5060a0820151816005015560c0820151816006015560e08201518160070155610100820151816008019080519060200190610372929190610b84565b50610120820151816009015561014082015181600a01908051906020019061039b929190610b84565b5061016082015181600b015590505050565b60006060806060806000806000606060006060600080600160008f815260200190815260200160002060405180610180016040529081600082015481526020016001820180546103fc90610edd565b80601f016020809104026020016040519081016040528092919081815260200182805461042890610edd565b80156104755780601f1061044a57610100808354040283529160200191610475565b820191906000526020600020905b81548152906001019060200180831161045857829003601f168201915b5050505050815260200160028201805461048e90610edd565b80601f01602080910402602001604051908101604052809291908181526020018280546104ba90610edd565b80156105075780601f106104dc57610100808354040283529160200191610507565b820191906000526020600020905b8154815290600101906020018083116104ea57829003601f168201915b5050505050815260200160038201805461052090610edd565b80601f016020809104026020016040519081016040528092919081815260200182805461054c90610edd565b80156105995780601f1061056e57610100808354040283529160200191610599565b820191906000526020600020905b81548152906001019060200180831161057c57829003601f168201915b505050505081526020016004820180546105b290610edd565b80601f01602080910402602001604051908101604052809291908181526020018280546105de90610edd565b801561062b5780601f106106005761010080835404028352916020019161062b565b820191906000526020600020905b81548152906001019060200180831161060e57829003601f168201915b5050505050815260200160058201548152602001600682015481526020016007820154815260200160088201805461066290610edd565b80601f016020809104026020016040519081016040528092919081815260200182805461068e90610edd565b80156106db5780601f106106b0576101008083540402835291602001916106db565b820191906000526020600020905b8154815290600101906020018083116106be57829003601f168201915b5050505050815260200160098201548152602001600a820180546106fe90610edd565b80601f016020809104026020016040519081016040528092919081815260200182805461072a90610edd565b80156107775780601f1061074c57610100808354040283529160200191610777565b820191906000526020600020905b81548152906001019060200180831161075a57829003601f168201915b50505050508152602001600b820154815250509050806000015181602001518260400151836060015184608001518560a001518660c001518760e001518861010001518961012001518a61014001518b61016001519c509c509c509c509c509c509c509c509c509c509c509c505091939597999b5091939597999b565b600160205280600052604060002060009150905080600001549080600101805461081d90610edd565b80601f016020809104026020016040519081016040528092919081815260200182805461084990610edd565b80156108965780601f1061086b57610100808354040283529160200191610896565b820191906000526020600020905b81548152906001019060200180831161087957829003601f168201915b5050505050908060020180546108ab90610edd565b80601f01602080910402602001604051908101604052809291908181526020018280546108d790610edd565b80156109245780601f106108f957610100808354040283529160200191610924565b820191906000526020600020905b81548152906001019060200180831161090757829003601f168201915b50505050509080600301805461093990610edd565b80601f016020809104026020016040519081016040528092919081815260200182805461096590610edd565b80156109b25780601f10610987576101008083540402835291602001916109b2565b820191906000526020600020905b81548152906001019060200180831161099557829003601f168201915b5050505050908060040180546109c790610edd565b80601f01602080910402602001604051908101604052809291908181526020018280546109f390610edd565b8015610a405780601f10610a1557610100808354040283529160200191610a40565b820191906000526020600020905b815481529060010190602001808311610a2357829003601f168201915b505050505090806005015490806006015490806007015490806008018054610a6790610edd565b80601f0160208091040260200160405190810160405280929190818152602001828054610a9390610edd565b8015610ae05780601f10610ab557610100808354040283529160200191610ae0565b820191906000526020600020905b815481529060010190602001808311610ac357829003601f168201915b50505050509080600901549080600a018054610afb90610edd565b80601f0160208091040260200160405190810160405280929190818152602001828054610b2790610edd565b8015610b745780601f10610b4957610100808354040283529160200191610b74565b820191906000526020600020905b815481529060010190602001808311610b5757829003601f168201915b50505050509080600b015490508c565b828054610b9090610edd565b90600052602060002090601f016020900481019282610bb25760008555610bf9565b82601f10610bcb57805160ff1916838001178555610bf9565b82800160010185558215610bf9579182015b82811115610bf8578251825591602001919060010190610bdd565b5b509050610c069190610c0a565b5090565b5b80821115610c23576000816000905550600101610c0b565b5090565b6000819050919050565b610c3a81610c27565b82525050565b6000602082019050610c556000830184610c31565b92915050565b600080fd5b610c6981610c27565b8114610c7457600080fd5b50565b600081359050610c8681610c60565b92915050565b600060208284031215610ca257610ca1610c5b565b5b6000610cb084828501610c77565b91505092915050565b600081519050919050565b600082825260208201905092915050565b60005b83811015610cf3578082015181840152602081019050610cd8565b83811115610d02576000848401525b50505050565b6000601f19601f8301169050919050565b6000610d2482610cb9565b610d2e8185610cc4565b9350610d3e818560208601610cd5565b610d4781610d08565b840191505092915050565b600061018082019050610d68600083018f610c31565b8181036020830152610d7a818e610d19565b90508181036040830152610d8e818d610d19565b90508181036060830152610da2818c610d19565b90508181036080830152610db6818b610d19565b9050610dc560a083018a610c31565b610dd260c0830189610c31565b610ddf60e0830188610c31565b818103610100830152610df28187610d19565b9050610e02610120830186610c31565b818103610140830152610e158185610d19565b9050610e25610160830184610c31565b9d9c50505050505050505050505050565b7f4e487b7100000000000000000000000000000000000000000000000000000000600052601160045260246000fd5b6000610e7082610c27565b91507fffffffffffffffffffffffffffffffffffffffffffffffffffffffffffffffff821415610ea357610ea2610e36565b5b600182019050919050565b7f4e487b7100000000000000000000000000000000000000000000000000000000600052602260045260246000fd5b60006002820490506001821680610ef557607f821691505b60208210811415610f0957610f08610eae565b5b5091905056fea2646970667358221220c94377067fde999ba71b993de1d269888580a17b876aa8a8c4f797f6860cd17264736f6c634300080a0033",
  "immutableReferences": {},
  "source": "// SPDX-License-Identifier: UNLICENSED\r\npragma solidity ^0.8.0;\r\n\r\ncontract Property {\r\n    struct Property {\r\n        uint256 registrationNumber;\r\n        string ownerName;\r\n        string registrationDate;\r\n        string propertyType;\r\n        string province;\r\n        uint256 marla;\r\n        uint256 noOfRooms;\r\n        uint256 noOfFloors;\r\n        string phaseNo;\r\n        uint256 sold_count;\r\n        string location;\r\n        uint256 tax;\r\n    }\r\n    uint public count = 0;\r\n    \r\n    mapping(uint256 => Property) public properties;\r\n    \r\n    function setPropertyData() public {\r\n        Property memory propertyData = Property(\r\n            89,\r\n            \"Azeem\",\r\n            \"12/2/2022\",\r\n            \"RESSIDENTIAL\",\r\n            \"PUNJAB\",\r\n            10,\r\n            5,\r\n            2,\r\n            \"F-9\",\r\n            3,\r\n            \"31.502545, 74.289242\",\r\n            45000\r\n        );\r\n        properties[count++] = propertyData;\r\n    }\r\n    function getPropertyData(uint256 registrationNumber) public view returns (\r\n    uint256,\r\n    string memory,\r\n    string memory,\r\n    string memory,\r\n    string memory,\r\n    uint256,\r\n    uint256,\r\n    uint256,\r\n    string memory,\r\n    uint256,\r\n    string memory,\r\n    uint256\r\n) {\r\n    Property memory propertyData = properties[registrationNumber];\r\n    return (\r\n        propertyData.registrationNumber,\r\n        propertyData.ownerName,\r\n        propertyData.registrationDate,\r\n        propertyData.propertyType,\r\n        propertyData.province,\r\n        propertyData.marla,\r\n        propertyData.noOfRooms,\r\n        propertyData.noOfFloors,\r\n        propertyData.phaseNo,\r\n        propertyData.sold_count,\r\n        propertyData.location,\r\n        propertyData.tax\r\n    );\r\n}\r\n}\r\n",
  "sourcePath": "C:\\Users\\PMLS\\Documents\\GitHub\\Final-Year-Project\\blockchain-node-api\\contracts\\Property.sol",
  "compiler": {
    "name": "solc",
    "version": "0.8.10+commit.fc410830.Emscripten.clang"
  },
  "schemaVersion": "3.4.16",
  "updatedAt": "2024-04-28T14:50:41.564Z",
  "networkType": "ethereum",
  "devdoc": {
    "kind": "dev",
    "methods": {},
    "version": 1
  },
  "userdoc": {
    "kind": "user",
    "methods": {},
    "version": 1
  }
}