{
  "contractName": "Transaction",
  "abi": [
    {
      "inputs": [
        {
          "internalType": "uint256",
          "name": "",
          "type": "uint256"
        }
      ],
      "name": "transactions",
      "outputs": [
        {
          "internalType": "uint256",
          "name": "id",
          "type": "uint256"
        },
        {
          "components": [
            {
              "internalType": "string",
              "name": "name",
              "type": "string"
            },
            {
              "internalType": "string",
              "name": "email",
              "type": "string"
            },
            {
              "internalType": "string",
              "name": "contact_no",
              "type": "string"
            },
            {
              "internalType": "string",
              "name": "cnic",
              "type": "string"
            }
          ],
          "internalType": "struct Transaction.Buyer",
          "name": "buyer",
          "type": "tuple"
        },
        {
          "components": [
            {
              "internalType": "string",
              "name": "phase",
              "type": "string"
            },
            {
              "internalType": "string",
              "name": "plot_no",
              "type": "string"
            },
            {
              "internalType": "string",
              "name": "property",
              "type": "string"
            },
            {
              "internalType": "uint256",
              "name": "no_of_square_feet",
              "type": "uint256"
            }
          ],
          "internalType": "struct Transaction.Plot",
          "name": "plot",
          "type": "tuple"
        },
        {
          "internalType": "uint256",
          "name": "price",
          "type": "uint256"
        },
        {
          "internalType": "bool",
          "name": "isConstructed",
          "type": "bool"
        },
        {
          "internalType": "string",
          "name": "paymentMethod",
          "type": "string"
        }
      ],
      "stateMutability": "view",
      "type": "function",
      "constant": true
    },
    {
      "inputs": [
        {
          "internalType": "uint256",
          "name": "_id",
          "type": "uint256"
        }
      ],
      "name": "getTransaction",
      "outputs": [
        {
          "internalType": "uint256",
          "name": "",
          "type": "uint256"
        },
        {
          "components": [
            {
              "internalType": "string",
              "name": "name",
              "type": "string"
            },
            {
              "internalType": "string",
              "name": "email",
              "type": "string"
            },
            {
              "internalType": "string",
              "name": "contact_no",
              "type": "string"
            },
            {
              "internalType": "string",
              "name": "cnic",
              "type": "string"
            }
          ],
          "internalType": "struct Transaction.Buyer",
          "name": "",
          "type": "tuple"
        },
        {
          "components": [
            {
              "internalType": "string",
              "name": "phase",
              "type": "string"
            },
            {
              "internalType": "string",
              "name": "plot_no",
              "type": "string"
            },
            {
              "internalType": "string",
              "name": "property",
              "type": "string"
            },
            {
              "internalType": "uint256",
              "name": "no_of_square_feet",
              "type": "uint256"
            }
          ],
          "internalType": "struct Transaction.Plot",
          "name": "",
          "type": "tuple"
        },
        {
          "internalType": "uint256",
          "name": "",
          "type": "uint256"
        },
        {
          "internalType": "bool",
          "name": "",
          "type": "bool"
        },
        {
          "internalType": "string",
          "name": "",
          "type": "string"
        }
      ],
      "stateMutability": "view",
      "type": "function",
      "constant": true
    },
    {
      "inputs": [
        {
          "internalType": "uint256",
          "name": "_id",
          "type": "uint256"
        },
        {
          "components": [
            {
              "internalType": "string",
              "name": "name",
              "type": "string"
            },
            {
              "internalType": "string",
              "name": "email",
              "type": "string"
            },
            {
              "internalType": "string",
              "name": "contact_no",
              "type": "string"
            },
            {
              "internalType": "string",
              "name": "cnic",
              "type": "string"
            }
          ],
          "internalType": "struct Transaction.Buyer",
          "name": "_buyer",
          "type": "tuple"
        },
        {
          "components": [
            {
              "internalType": "string",
              "name": "phase",
              "type": "string"
            },
            {
              "internalType": "string",
              "name": "plot_no",
              "type": "string"
            },
            {
              "internalType": "string",
              "name": "property",
              "type": "string"
            },
            {
              "internalType": "uint256",
              "name": "no_of_square_feet",
              "type": "uint256"
            }
          ],
          "internalType": "struct Transaction.Plot",
          "name": "_plot",
          "type": "tuple"
        },
        {
          "internalType": "uint256",
          "name": "_price",
          "type": "uint256"
        },
        {
          "internalType": "bool",
          "name": "_isConstructed",
          "type": "bool"
        },
        {
          "internalType": "string",
          "name": "_paymentMethod",
          "type": "string"
        }
      ],
      "name": "createTransaction",
      "outputs": [],
      "stateMutability": "nonpayable",
      "type": "function"
    }
  ],
  "bytecode": "0x608060405234801561001057600080fd5b50611519806100206000396000f3fe608060405234801561001057600080fd5b50600436106100405760003560e01c8062d1d4841461004557806333ea3dc8146100615780639ace38c214610096575b600080fd5b61005f600480360381019061005a9190611116565b6100cb565b005b61007b600480360381019061007691906111f7565b610253565b60405161008d9695949392919061140c565b60405180910390f35b6100b060048036038101906100ab91906111f7565b6107b0565b6040516100c29695949392919061140c565b60405180910390f35b6040518060c0016040528087815260200186815260200185815260200184815260200183151581526020018281525060008088815260200190815260200160002060008201518160000155602082015181600101600082015181600001908051906020019061013b929190610c9d565b506020820151816001019080519060200190610158929190610c9d565b506040820151816002019080519060200190610175929190610c9d565b506060820151816003019080519060200190610192929190610c9d565b50505060408201518160050160008201518160000190805190602001906101ba929190610c9d565b5060208201518160010190805190602001906101d7929190610c9d565b5060408201518160020190805190602001906101f4929190610c9d565b5060608201518160030155505060608201518160090155608082015181600a0160006101000a81548160ff02191690831515021790555060a082015181600b019080519060200190610247929190610c9d565b50905050505050505050565b600061025d610d23565b610265610d4b565b600080606060008060008981526020019081526020016000206040518060c001604052908160008201548152602001600182016040518060800160405290816000820180546102b3906114b1565b80601f01602080910402602001604051908101604052809291908181526020018280546102df906114b1565b801561032c5780601f106103015761010080835404028352916020019161032c565b820191906000526020600020905b81548152906001019060200180831161030f57829003601f168201915b50505050508152602001600182018054610345906114b1565b80601f0160208091040260200160405190810160405280929190818152602001828054610371906114b1565b80156103be5780601f10610393576101008083540402835291602001916103be565b820191906000526020600020905b8154815290600101906020018083116103a157829003601f168201915b505050505081526020016002820180546103d7906114b1565b80601f0160208091040260200160405190810160405280929190818152602001828054610403906114b1565b80156104505780601f1061042557610100808354040283529160200191610450565b820191906000526020600020905b81548152906001019060200180831161043357829003601f168201915b50505050508152602001600382018054610469906114b1565b80601f0160208091040260200160405190810160405280929190818152602001828054610495906114b1565b80156104e25780601f106104b7576101008083540402835291602001916104e2565b820191906000526020600020905b8154815290600101906020018083116104c557829003601f168201915b50505050508152505081526020016005820160405180608001604052908160008201805461050f906114b1565b80601f016020809104026020016040519081016040528092919081815260200182805461053b906114b1565b80156105885780601f1061055d57610100808354040283529160200191610588565b820191906000526020600020905b81548152906001019060200180831161056b57829003601f168201915b505050505081526020016001820180546105a1906114b1565b80601f01602080910402602001604051908101604052809291908181526020018280546105cd906114b1565b801561061a5780601f106105ef5761010080835404028352916020019161061a565b820191906000526020600020905b8154815290600101906020018083116105fd57829003601f168201915b50505050508152602001600282018054610633906114b1565b80601f016020809104026020016040519081016040528092919081815260200182805461065f906114b1565b80156106ac5780601f10610681576101008083540402835291602001916106ac565b820191906000526020600020905b81548152906001019060200180831161068f57829003601f168201915b50505050508152602001600382015481525050815260200160098201548152602001600a820160009054906101000a900460ff16151515158152602001600b820180546106f8906114b1565b80601f0160208091040260200160405190810160405280929190818152602001828054610724906114b1565b80156107715780601f1061074657610100808354040283529160200191610771565b820191906000526020600020905b81548152906001019060200180831161075457829003601f168201915b5050505050815250509050806000015181602001518260400151836060015184608001518560a001519650965096509650965096505091939550919395565b6000602052806000526040600020600091509050806000015490806001016040518060800160405290816000820180546107e9906114b1565b80601f0160208091040260200160405190810160405280929190818152602001828054610815906114b1565b80156108625780601f1061083757610100808354040283529160200191610862565b820191906000526020600020905b81548152906001019060200180831161084557829003601f168201915b5050505050815260200160018201805461087b906114b1565b80601f01602080910402602001604051908101604052809291908181526020018280546108a7906114b1565b80156108f45780601f106108c9576101008083540402835291602001916108f4565b820191906000526020600020905b8154815290600101906020018083116108d757829003601f168201915b5050505050815260200160028201805461090d906114b1565b80601f0160208091040260200160405190810160405280929190818152602001828054610939906114b1565b80156109865780601f1061095b57610100808354040283529160200191610986565b820191906000526020600020905b81548152906001019060200180831161096957829003601f168201915b5050505050815260200160038201805461099f906114b1565b80601f01602080910402602001604051908101604052809291908181526020018280546109cb906114b1565b8015610a185780601f106109ed57610100808354040283529160200191610a18565b820191906000526020600020905b8154815290600101906020018083116109fb57829003601f168201915b5050505050815250509080600501604051806080016040529081600082018054610a41906114b1565b80601f0160208091040260200160405190810160405280929190818152602001828054610a6d906114b1565b8015610aba5780601f10610a8f57610100808354040283529160200191610aba565b820191906000526020600020905b815481529060010190602001808311610a9d57829003601f168201915b50505050508152602001600182018054610ad3906114b1565b80601f0160208091040260200160405190810160405280929190818152602001828054610aff906114b1565b8015610b4c5780601f10610b2157610100808354040283529160200191610b4c565b820191906000526020600020905b815481529060010190602001808311610b2f57829003601f168201915b50505050508152602001600282018054610b65906114b1565b80601f0160208091040260200160405190810160405280929190818152602001828054610b91906114b1565b8015610bde5780601f10610bb357610100808354040283529160200191610bde565b820191906000526020600020905b815481529060010190602001808311610bc157829003601f168201915b505050505081526020016003820154815250509080600901549080600a0160009054906101000a900460ff169080600b018054610c1a906114b1565b80601f0160208091040260200160405190810160405280929190818152602001828054610c46906114b1565b8015610c935780601f10610c6857610100808354040283529160200191610c93565b820191906000526020600020905b815481529060010190602001808311610c7657829003601f168201915b5050505050905086565b828054610ca9906114b1565b90600052602060002090601f016020900481019282610ccb5760008555610d12565b82601f10610ce457805160ff1916838001178555610d12565b82800160010185558215610d12579182015b82811115610d11578251825591602001919060010190610cf6565b5b509050610d1f9190610d73565b5090565b6040518060800160405280606081526020016060815260200160608152602001606081525090565b6040518060800160405280606081526020016060815260200160608152602001600081525090565b5b80821115610d8c576000816000905550600101610d74565b5090565b6000604051905090565b600080fd5b600080fd5b6000819050919050565b610db781610da4565b8114610dc257600080fd5b50565b600081359050610dd481610dae565b92915050565b600080fd5b6000601f19601f8301169050919050565b7f4e487b7100000000000000000000000000000000000000000000000000000000600052604160045260246000fd5b610e2882610ddf565b810181811067ffffffffffffffff82111715610e4757610e46610df0565b5b80604052505050565b6000610e5a610d90565b9050610e668282610e1f565b919050565b600080fd5b600080fd5b600080fd5b600067ffffffffffffffff821115610e9557610e94610df0565b5b610e9e82610ddf565b9050602081019050919050565b82818337600083830152505050565b6000610ecd610ec884610e7a565b610e50565b905082815260208101848484011115610ee957610ee8610e75565b5b610ef4848285610eab565b509392505050565b600082601f830112610f1157610f10610e70565b5b8135610f21848260208601610eba565b91505092915050565b600060808284031215610f4057610f3f610dda565b5b610f4a6080610e50565b9050600082013567ffffffffffffffff811115610f6a57610f69610e6b565b5b610f7684828501610efc565b600083015250602082013567ffffffffffffffff811115610f9a57610f99610e6b565b5b610fa684828501610efc565b602083015250604082013567ffffffffffffffff811115610fca57610fc9610e6b565b5b610fd684828501610efc565b604083015250606082013567ffffffffffffffff811115610ffa57610ff9610e6b565b5b61100684828501610efc565b60608301525092915050565b60006080828403121561102857611027610dda565b5b6110326080610e50565b9050600082013567ffffffffffffffff81111561105257611051610e6b565b5b61105e84828501610efc565b600083015250602082013567ffffffffffffffff81111561108257611081610e6b565b5b61108e84828501610efc565b602083015250604082013567ffffffffffffffff8111156110b2576110b1610e6b565b5b6110be84828501610efc565b60408301525060606110d284828501610dc5565b60608301525092915050565b60008115159050919050565b6110f3816110de565b81146110fe57600080fd5b50565b600081359050611110816110ea565b92915050565b60008060008060008060c0878903121561113357611132610d9a565b5b600061114189828a01610dc5565b965050602087013567ffffffffffffffff81111561116257611161610d9f565b5b61116e89828a01610f2a565b955050604087013567ffffffffffffffff81111561118f5761118e610d9f565b5b61119b89828a01611012565b94505060606111ac89828a01610dc5565b93505060806111bd89828a01611101565b92505060a087013567ffffffffffffffff8111156111de576111dd610d9f565b5b6111ea89828a01610efc565b9150509295509295509295565b60006020828403121561120d5761120c610d9a565b5b600061121b84828501610dc5565b91505092915050565b61122d81610da4565b82525050565b600081519050919050565b600082825260208201905092915050565b60005b8381101561126d578082015181840152602081019050611252565b8381111561127c576000848401525b50505050565b600061128d82611233565b611297818561123e565b93506112a781856020860161124f565b6112b081610ddf565b840191505092915050565b600060808301600083015184820360008601526112d88282611282565b915050602083015184820360208601526112f28282611282565b9150506040830151848203604086015261130c8282611282565b915050606083015184820360608601526113268282611282565b9150508091505092915050565b61133c81610da4565b82525050565b6000608083016000830151848203600086015261135f8282611282565b915050602083015184820360208601526113798282611282565b915050604083015184820360408601526113938282611282565b91505060608301516113a86060860182611333565b508091505092915050565b6113bc816110de565b82525050565b600082825260208201905092915050565b60006113de82611233565b6113e881856113c2565b93506113f881856020860161124f565b61140181610ddf565b840191505092915050565b600060c0820190506114216000830189611224565b818103602083015261143381886112bb565b905081810360408301526114478187611342565b90506114566060830186611224565b61146360808301856113b3565b81810360a083015261147581846113d3565b9050979650505050505050565b7f4e487b7100000000000000000000000000000000000000000000000000000000600052602260045260246000fd5b600060028204905060018216806114c957607f821691505b602082108114156114dd576114dc611482565b5b5091905056fea2646970667358221220ed66b601c51b2530f1cd2bc1b9505da31a163a52052a7d5fee3c04b785a1a3c864736f6c634300080a0033",
  "immutableReferences": {},
  "source": "pragma solidity ^0.8.0;\r\n\r\ncontract Transaction {\r\n    struct Buyer {\r\n        string name;\r\n        string email;\r\n        string contact_no;\r\n        string cnic;\r\n    }\r\n\r\n    struct Plot {\r\n        string phase;\r\n        string plot_no;\r\n        string property;\r\n        uint no_of_square_feet;\r\n    }\r\n\r\n    struct TransactionRecord {\r\n        uint id;\r\n        Buyer buyer;\r\n        Plot plot;\r\n        uint price;\r\n        bool isConstructed;\r\n        string paymentMethod;\r\n    }\r\n\r\n    mapping(uint => TransactionRecord) public transactions;\r\n\r\n    function getTransaction(\r\n        uint _id\r\n    )\r\n        public\r\n        view\r\n        returns (uint, Buyer memory, Plot memory, uint, bool, string memory)\r\n    {\r\n        TransactionRecord memory transaction = transactions[_id];\r\n        return (\r\n            transaction.id,\r\n            transaction.buyer,\r\n            transaction.plot,\r\n            transaction.price,\r\n            transaction.isConstructed,\r\n            transaction.paymentMethod\r\n        );\r\n    }\r\n\r\n    function createTransaction(\r\n        uint _id,\r\n        Buyer memory _buyer,\r\n        Plot memory _plot,\r\n        uint _price,\r\n        bool _isConstructed,\r\n        string memory _paymentMethod\r\n    ) public {\r\n        transactions[_id] = TransactionRecord({\r\n            id: _id,\r\n            buyer: _buyer,\r\n            plot: _plot,\r\n            price: _price,\r\n            isConstructed: _isConstructed,\r\n            paymentMethod: _paymentMethod\r\n        });\r\n    }\r\n}\r\n",
  "sourcePath": "C:\\Users\\PMLS\\Documents\\GitHub\\Final-Year-Project\\blockchain-node-api\\contracts\\Transaction.sol",
  "compiler": {
    "name": "solc",
    "version": "0.8.10+commit.fc410830.Emscripten.clang"
  },
  "schemaVersion": "3.4.16",
  "updatedAt": "2024-04-28T14:53:36.234Z",
  "networkType": "ethereum",
  "devdoc": {
    "kind": "dev",
    "methods": {},
    "version": 1
  },
  "userdoc": {
    "kind": "user",
    "methods": {},
    "version": 1
  }
}